:100000004CC0000067C0000065C0000063C0000075
:1000100061C000005FC000005DC000005BC0000068
:1000200059C0000057C0000055C0000053C0000078
:1000300051C000004FC000004DC000004BC0000088
:1000400049C00000CFC0000045C0000043C0000010
:1000500041C000003FC000003DC000003BC00000A8
:1000600039C0000037C0000035C0000033C00000B8
:1000700031C000002FC000002DC000002BC00000C8
:1000800029C0000027C0000025C000001002120295
:10009000140217021A021E02210211241FBECFEF02
:1000A000D0E1DEBFCDBF11E0A0E0B1E0E6EFF5E0CA
:1000B00000E00BBF02C007900D92A430B107D9F742
:1000C00026E0A4E0B1E001C01D92A93CB207E1F72F
:1000D0006AD18FC295CFFC010FB6F8946091C50626
:1000E0007091C6068091C7069091C8060FBE3097E2
:1000F00021F06083718382839383089508958F92A2
:100100009F92AF92BF92CF92DF92EF92FF920F93A6
:100110004B015C0169017A0180EE91E0A0E0B0E062
:100120008093110190931201A0931301B0931401D5
:1001300080E090E0D0DFCB01F4D101E020E040E0AE
:1001400061E080E039D11092B506409111015091E3
:1001500012016091130170911401E1E1F1E080E07E
:1001600090E0DC01339684179507A607B70739F0AE
:100170001182128213820196A11DB11DF3CF81E07D
:100180008093B6068092B7069092B806A092B90600
:10019000B092BA06C092BB06D092BC06E092BD06F1
:1001A000F092BE061092C0061092BF061092C106D1
:1001B0001092C2061092C3061092C4060F91FF90CF
:1001C000EF90DF90CF90BF90AF909F908F90089569
:1001D0008091B506811105C081E08093B50680E06D
:1001E0003DC108951F920F920FB60F9211240BB6C6
:1001F0000F922F933F934F935F936F937F938F93C0
:100200009F93AF93BF93EF93FF938091B50688239D
:1002100009F4B6C0C09880910D0190910E01A09193
:100220000F01B091100181309105A105B10589F14F
:1002300098F082309105A105B105C9F52091090119
:1002400030910A01F901EE0FFF1F2E0F3F1FF90138
:10025000EF5EFE4F26810DC02091090130910A0109
:10026000F901EE0FFF1F2E0F3F1FF901EF5EFE4F4A
:10027000258130E00090050102C0359527950A944C
:10028000E2F720FF02C02CEF01C020EC2093040114
:100290000EC02091090130910A01F901EE0FFF1FF4
:1002A0002E0F3F1FF901EF5EFE4F2481E2CF4091F8
:1002B00005015091060160910701709108014730D6
:1002C00051056105710568F44F5F5F4F6F4F7F4FB8
:1002D0004093050150930601609307017093080154
:1002E00013C010920501109206011092070110929E
:1002F00008010196A11DB11D80930D0190930E017F
:10030000A0930F01B093100180910D0190910E0107
:10031000A0910F01B09110010397A105B10568F1FB
:1003200010920D0110920E0110920F011092100107
:100330008091090190910A01A0910B01B0910C01EB
:100340008F3D21E09207A105B10560F40196A11D42
:10035000B11D8093090190930A01A0930B01B09302
:100360000C010BC01092090110920A0110920B01AE
:1003700010920C011092B506C09A809104016ED0C3
:10038000FF91EF91BF91AF919F918F917F916F916D
:100390005F914F913F912F910F900BBE0F900FBE29
:1003A0000F901F901895F8945BD078948091B506C3
:1003B0008111FECF0DDFFACF0F931DB81EB81FB805
:1003C000882341F0813079F4BB9AB998BA98B898EB
:1003D000C39809C0B99ABA9AB89ABB98C09AC198FA
:1003E000C29880E101C080E0413009F48062613050
:1003F00049F030F0623049F0633049F48C6007C056
:10040000837F05C0877F846002C08B7F8860422F16
:1004100050E047305105B0F4FA01EA5BFF4F2EC0BF
:100420008C7F0AC08C7F0EC08D7F816005C08D7F60
:10043000816008C08E7F826091E005C08E7F8260FF
:1004400001C0836090E0011180682DB12064822B8F
:100450008DB98EB1982B9EB90F9108958FB90895DB
:1004600028E030E040E050E06CE370E080E090E0B5
:1004700046DE60E070E08FEC90E040CEEE0FFF1FB4
:100480000024001C0BBE0790F691E02D09948F927A
:100490009F92AF92BF92CF92DF92EF92FF92CF9353
:1004A000DF93EC01688179818A819B8161157105F7
:1004B0008105910521F464E279ED8BE597E02DE16A
:1004C00033EF41E050E038D049015A019B01AC01C3
:1004D000A7EAB1E44DD06B017C01ACEEB4EFA5010D
:1004E000940152D0DC01CB018C0D9D1DAE1DBF1DB2
:1004F000B7FF03C00197A109B04888839983AA83F5
:10050000BB839F77DF91CF91FF90EF90DF90CF90EB
:10051000BF90AF909F908F900895B9CF80E091E009
:10052000B6CFA0E0B0E08093000190930101A093CA
:100530000201B09303010895052E97FB16F4009471
:100540000FD057FD05D024D007FC02D046F408C0D8
:1005500050954095309521953F4F4F4F5F4F0895EF
:1005600090958095709561957F4F8F4F9F4F08951F
:1005700031D0A59F900DB49F900DA49F800D911D2B
:1005800011240895B7FFF4CFF3DF821B930B089576
:10059000A1E21A2EAA1BBB1BFD010DC0AA1FBB1F87
:1005A000EE1FFF1FA217B307E407F50720F0A21BF9
:1005B000B30BE40BF50B661F771F881F991F1A9466
:1005C00069F760957095809590959B01AC01BD0190
:1005D000CF010895A29FB001B39FC001A39F700DEA
:1005E000811D1124911DB29F700D811D1124911D3B
:0605F0000895F894FFCF0E
:0405F6000100000000
:00000001FF
