S01300007469636B65725F78385F432E73726563DE
S1130000CCC20000E7C20000E5C20000E3C2000069
S1130010E1C20000DFC20000DDC20000DBC200005C
S1130020D9C20000D7C20000D5C20000D3C200006C
S1130030D1C20000CFC20000CDC20000CBC200007C
S1130040C9C2000008C40000C5C20000C3C2000049
S1130050C1C20000BFC20000BDC20000BBC200009C
S1130060B9C20000B7C20000B5C20000B3C20000AC
S1130070B1C20000AFC20000ADC20000ABC20000BC
S1130080A9C20000A7C20000A5C200009B059E05EE
S1130090A105A505A905AD05B10500000000003EB8
S11300A05B4F5B3E3E6B4F6B3E1C3E7C3E1C183CE4
S11300B07E3C181C577D571C1C5E7F5E1C00183C40
S11300C01800FFE7C3E7FF0018241800FFE7DBE789
S11300D0FF30483A060E2629792926407F05050770
S11300E0407F05253F5A3CE73C5A7F3E1C1C0808CC
S11300F01C1C3E7F14227F22145F5F005F5F060991
S11301007F017F006689956A606060606094A2FFE9
S1130110A29408047E040810207E201008082A1CDB
S113012008081C2A08081E101010100C1E0C1E0CA7
S113013030383E3830060E3E0E0600000000000047
S1130140005F00000007000700147F147F14242AB6
S11301507F2A122313086462364956205000080788
S11301600300001C2241000041221C002A1C7F1CA9
S11301702A08083E080800807030000808080808AB
S1130180000060600020100804023E5149453E0012
S1130190427F400072494949462141494D33181470
S11301A0127F1027454545393C4A494931412111BF
S11301B009073649494936464949291E00001400B1
S11301C000004034000000081422411414141414D4
S11301D0004122140802015909063E415D594E7C32
S11301E01211127C7F494949363E414141227F41E7
S11301F041413E7F494949417F090909013E414145
S113020051737F0808087F00417F41002040413F2F
S1130210017F081422417F404040407F021C027F3E
S11302207F0408107F3E4141413E7F090909063E93
S11302304151215E7F091929462649494932030162
S11302407F01033F4040403F1F2040201F3F403874
S1130250403F631408146303047804036159494D4F
S113026043007F4141410204081020004141417F85
S113027004020102044040404040000307080020FB
S1130280545478407F2844443838444444283844FB
S113029044287F385454541800087E090218A4A432
S11302A09C787F0804047800447D40002040403D51
S11302B0007F1028440000417F40007C04780478CB
S11302C07C080404783844444438FC18242418185E
S11302D0242418FC7C0804040848545454240404BA
S11302E03F44243C4040207C1C2040201C3C4030A7
S11302F0403C44281028444C9090907C4464544CD6
S11303004400083641000000770000004136080030
S113031002010204023C2623263C1EA1A161123ADA
S11303204040207A38545455592155557941225426
S1130330547842215554784020545579400C1E522B
S113034072123955555559395454545939555454D0
S1130350580000457C410002457D420001457C4037
S11303607D1211127DF0282528F07C54554500207B
S113037054547C547C0A097F4932494949323A44ED
S113038044443A324A4848303A4141217A3A424058
S11303902078009DA0A07D3D4242423D3D4040402A
S11303A03D3C24FF2424487E4943662B2FFC2F2BFD
S11303B0FF0929F620C0887E09032054547941009E
S11303C000447D413048484A32384040227A007A1D
S11303D00A0A727D0D19317D2629292F28262929FB
S11303E029267F49494941380808080808080808A7
S11303F0382F10C8ACBA2F102834FA00007B000044
S113040008142A142222142A14085500550055AA47
S113041055AA55AAFF55FF55FF000000FF00101014
S113042010FF00141414FF001010FF00FF1010F050
S113043010F038565456181414F700FF0000FF004B
S1130440FF1414F404FC141417101F10101F101FB1
S11304501414141F00101010F0007E1111117E7F6F
S1130460494949307F494949367F01010101603FCB
S1130470213F607F4949494163147F1463494949D5
S113048049367F1008047F7F1009047F7F081422F7
S113049041403F01017F7F0204027F7F0808087FFB
S11304A03E4141413E7F0101017F7F090909063E2A
S11304B04141412201017F010163140804030E112B
S11304C07F110E63140814633F20203F600708085F
S11304D0087F7F407F407F3F203F207F017F484847
S11304E0307F4878007F007F484830414949493E81
S11304F07F083E413E462919097F205454547824EC
S11305005C5454247C545458207C0404040408147B
S113051054543C385454541844287C284454545457
S113052054283C4040207C3C4044207C007C1028E3
S113053044403C04047C7C0810087C007C10107C43
S11305403844444438007C04047C7C141414083873
S11305504444442004047C04040C5050503C382887
S11305607C283844281028443C20203C60000C108F
S1130570107C7C407C407C3C203C207C047C5050A3
S1130580307C5020007C007C50503044545454380B
S11305907C10384438483414147C11241FBECFEF27
S11305A0D0E1DEBFCDBF11E0A0E0B1E0ECE1FDE0C1
S11305B000E00BBF02C007900D92A231B107D9F73A
S11305C026E0A2E1B1E001C01D92A73DB207E1F728
S11305D04CD2A2C315CDFC010FB6F8946091D3069A
S11305E07091D4068091D5069091D6060FBE3097AF
S11305F021F0608371838283938308958F929F9205
S1130600AF92BF92CF92DF92EF92FF920F934B0182
S11306105C0169017A0180EE91E0A0E0B0E0809392
S11306201F0190932001A0932101B093220180E047
S113063090E0D1DFCB0108D301E020E040E061E0AD
S113064080E025D21092C30680E090E0DC010DC06A
S1130650FC01EE0FFF1FE80FF91FE15EFE4F14824D
S1130660158216820196A11DB11D40911F01509162
S11306702001609121017091220184179507A6073A
S1130680B70730F381E08093C4068092C506909248
S1130690C606A092C706B092C806C092C906D092F8
S11306A0CA06E092CB06F092CC061092CE061092C7
S11306B0CD061092CF061092D0061092D106109259
S11306C0D2060F91FF90EF90DF90CF90BF90AF9044
S11306D09F908F900895FB01EE0FFF1F6E0F7F1FF9
S11306E0FB01E15EFE4F4483358326830895CF9258
S11306F0DF92EF92FF920F931F93CF93DF937B01CF
S113070090E06C01CC0CDD1CCC0CDD1CC80ED91E99
S113071000E010E05BC000FD13C08CE3809F9001FB
S1130720819F300D1124C701880F991F8E0D9F1DC5
S1130730BC01660F771F620F731F6C0F7D1F15C0FE
S1130740C80101962CE3289FB001299F700D112444
S1130750615071096C1B7D0BC701880F991F8E0DA9
S11307609F1D880F991F681B790BC530D10539F47B
S113077080E090E020E030E0A901ADDF1DC0FE0183
S1130780EC0DFD1DE656FF4FE491F0E0002E02C093
S1130790F595E7950A94E2F7E0FF08C080E090E061
S11307A02FEF3FEF4FEF50E096DF06C080E090E080
S11307B020E030E0A9018FDF219602C0C0E0D0E044
S11307C0C630D1050CF4A7CF0F5F1F4F07301105BA
S11307D0ACF3DF91CF911F910F91FF90EF90DF90D9
S11307E0CF900895CF92DF92EF92FF92CF93DF9351
S11307F0EC019093CE068093CD06C12CD12C7601CA
S11308008AE0C816D104E104F10418F4B601888121
S11308106EDF8FEFC81AD80AE80AF80A2196888191
S11308208111EECFC092CF06D092D006E092D106CD
S1130830F092D206DF91CF91FF90EF90DF90CF90AE
S113084008958091C306811105C081E08093C30699
S113085080E096C108951F920F920FB60F92112453
S11308600BB60F922F933F934F935F936F937F93A6
S11308708F939F93AF93BF93EF93FF938091C3069E
S1130880882309F4DFC088B38E7F88BB80911B0165
S113089090911C01A0911D01B0911E018130910520
S11308A0A105B10539F138F082309105A105B105F2
S11308B009F43FC05CC02091170130911801F9017F
S11308C0EE0FFF1F2E0F3F1FF901E15EFE4F258142
S11308D030E00090130102C0359527950A94E2F7A1
S11308E020FF04C02CEF2093120141C020EC209380
S11308F012013DC02091170130911801F901EE0F4A
S1130900FF1F2E0F3F1FF901E15EFE4F248130E0EF
S11309100090130102C0359527950A94E2F720FF51
S113092004C02CEF2093120122C020EC209312016A
S11309301EC02091170130911801F901EE0FFF1F1D
S11309402E0F3F1FF901E15EFE4F268130E000903B
S1130950130102C0359527950A94E2F720FF04C0DD
S11309602CEF2093120103C020EC2093120140913C
S113097013015091140160911501709116014730D3
S113098051056105710568F44F5F5F4F6F4F7F4FED
S11309904093130150931401609315017093160151
S11309A013C01092130110921401109215011092A9
S11309B016010196A11DB11D80931B0190931C018A
S11309C0A0931D01B0931E0180911B0190911C0105
S11309D0A0911D01B0911E010397A105B10578F105
S11309E010921B0110921C0110921D0110921E0105
S11309F08091170190911801A0911901B0911A01E9
S1130A008F3D21E09207A105B10560F40196A11D77
S1130A10B11D8093170190931801A0931901B0930D
S1130A201A010DC0109217011092180110921901A9
S1130A3010921A011092C30688B3816088BB80911A
S1130A4012019ED0FF91EF91BF91AF919F918F9131
S1130A507F916F915F914F913F912F910F900BBEBA
S1130A600F900FBE0F901F901895F8948BD0789428
S1130A708091C3068111FCCF2FEF83ED90E32150C9
S1130A8080409040E1F700C00000DBDEF1CF0F931F
S1130A901DB81EB81FB8882319F08130C1F028C0D2
S1130AA087B3826087BB87B3846087BB87B3816069
S1130AB087BB87B3877F87BB88B3816088BB88B3D4
S1130AC08D7F88BB88B38B7F88BB80E112C087B3DE
S1130AD0886087BB87B38D7F87BB87B38B7F87BBDA
S1130AE087B38E7F87BB88B3877F88BB80E001C0D4
S1130AF080E0442319F0413019F003C08F7D01C018
S1130B008062613041F028F0623041F0633049F096
S1130B1009C0837F07C0877F846004C08B7F88609F
S1130B2001C08C60422F50E047305105E8F4FA01CF
S1130B30EA5BFF4F36C08C7F21E017C08C7F20E03A
S1130B4014C08D7F816021E010C08D7F816020E022
S1130B500CC08E7F826021E008C08E7F826020E01E
S1130B6004C0836020E001C020E00111806880643B
S1130B709DB1892B8DB98EB1822B8EB90F910895B9
S1130B808FB9089528E030E040E050E06CE370E075
S1130B9080E090E033DD809104019091050122CE44
S1130BA00895EE0FFF1F0024001C0BBE0790F69162
S1130BB0E02D09948F929F92AF92BF92CF92DF92D1
S1130BC0EF92FF92CF93DF93EC01688179818A8160
S1130BD09B81611571058105910521F464E279ED2C
S1130BE08BE597E02DE133EF41E050E038D0490147
S1130BF05A019B01AC01A7EAB1E44DD06B017C0121
S1130C00ACEEB4EFA501940152D0DC01CB018C0D04
S1130C109D1DAE1DBF1DB7FF03C00197A109B048BC
S1130C2088839983AA83BB839F77DF91CF91FF90B9
S1130C30EF90DF90CF90BF90AF909F908F900895EA
S1130C40B9CF80E091E0B6CFA0E0B0E0809300019E
S1130C5090930101A0930201B09303010895052E1E
S1130C6097FB16F400940FD057FD05D024D007FC51
S1130C7002D046F408C050954095309521953F4FD9
S1130C804F4F5F4F089590958095709561957F4F74
S1130C908F4F9F4F089531D0A59F900DB49F900D15
S1130CA0A49F800D911D11240895B7FFF4CFF3DFA5
S1130CB0821B930B0895A1E21A2EAA1BBB1BFD01F4
S1130CC00DC0AA1FBB1FEE1FFF1FA217B307E40727
S1130CD0F50720F0A21BB30BE40BF50B661F771F7F
S1130CE0881F991F1A9469F760957095809590955F
S1130CF09B01AC01BD01CF010895A29FB001B39F38
S1130D00C001A39F700D811D1124911DB29F700D10
S10F0D10811D1124911D0895F894FFCF5B
S1130D1C010000000601CFF0E8E2E5F220ECE8F077
S1050D2C0000C1
S9030000FC
