S01300007469636B65725F78385F432E73726563DE
S1130000CCC20000E7C20000E5C20000E3C2000069
S1130010E1C20000DFC20000DDC20000DBC200005C
S1130020D9C20000D7C20000D5C20000D3C200006C
S1130030D1C20000CFC20000CDC20000CBC200007C
S1130040C9C200001CC50000C5C20000C3C2000034
S1130050C1C20000BFC20000BDC20000BBC200009C
S1130060B9C20000B7C20000B5C20000B3C20000AC
S1130070B1C20000AFC20000ADC20000ABC20000BC
S1130080A9C20000A7C20000A5C200007507780736
S11300907B077F07830787078B0700000000003E6C
S11300A05B4F5B3E3E6B4F6B3E1C3E7C3E1C183CE4
S11300B07E3C181C577D571C1C5E7F5E1C00183C40
S11300C01800FFE7C3E7FF0018241800FFE7DBE789
S11300D0FF30483A060E2629792926407F05050770
S11300E0407F05253F5A3CE73C5A7F3E1C1C0808CC
S11300F01C1C3E7F14227F22145F5F005F5F060991
S11301007F017F006689956A606060606094A2FFE9
S1130110A29408047E040810207E201008082A1CDB
S113012008081C2A08081E101010100C1E0C1E0CA7
S113013030383E3830060E3E0E0600000000000047
S1130140005F00000007000700147F147F14242AB6
S11301507F2A122313086462364956205000080788
S11301600300001C2241000041221C002A1C7F1CA9
S11301702A08083E080800807030000808080808AB
S1130180000060600020100804023E5149453E0012
S1130190427F400072494949462141494D33181470
S11301A0127F1027454545393C4A494931412111BF
S11301B009073649494936464949291E00001400B1
S11301C000004034000000081422411414141414D4
S11301D0004122140802015909063E415D594E7C32
S11301E01211127C7F494949363E414141227F41E7
S11301F041413E7F494949417F090909013E414145
S113020051737F0808087F00417F41002040413F2F
S1130210017F081422417F404040407F021C027F3E
S11302207F0408107F3E4141413E7F090909063E93
S11302304151215E7F091929462649494932030162
S11302407F01033F4040403F1F2040201F3F403874
S1130250403F631408146303047804036159494D4F
S113026043007F4141410204081020004141417F85
S113027004020102044040404040000307080020FB
S1130280545478407F2844443838444444283844FB
S113029044287F385454541800087E090218A4A432
S11302A09C787F0804047800447D40002040403D51
S11302B0007F1028440000417F40007C04780478CB
S11302C07C080404783844444438FC18242418185E
S11302D0242418FC7C0804040848545454240404BA
S11302E03F44243C4040207C1C2040201C3C4030A7
S11302F0403C44281028444C9090907C4464544CD6
S11303004400083641000000770000004136080030
S113031002010204023C2623263C1EA1A161123ADA
S11303204040207A38545455592155557941225426
S1130330547842215554784020545579400C1E522B
S113034072123955555559395454545939555454D0
S1130350580000457C410002457D420001457C4037
S11303607D1211127DF0282528F07C54554500207B
S113037054547C547C0A097F4932494949323A44ED
S113038044443A324A4848303A4141217A3A424058
S11303902078009DA0A07D3D4242423D3D4040402A
S11303A03D3C24FF2424487E4943662B2FFC2F2BFD
S11303B0FF0929F620C0887E09032054547941009E
S11303C000447D413048484A32384040227A007A1D
S11303D00A0A727D0D19317D2629292F28262929FB
S11303E029267F49494941380808080808080808A7
S11303F0382F10C8ACBA2F102834FA00007B000044
S113040008142A142222142A14085500550055AA47
S113041055AA55AAFF55FF55FF000000FF00101014
S113042010FF00141414FF001010FF00FF1010F050
S113043010F038565456181414F700FF0000FF004B
S1130440FF1414F404FC141417101F10101F101FB1
S11304501414141F00101010F0007E1111117E7F6F
S1130460494949307F494949367F01010101603FCB
S1130470213F607F4949494163147F1463494949D5
S113048049367F1008047F7F1009047F7F081422F7
S113049041403F01017F7F0204027F7F0808087FFB
S11304A03E4141413E7F0101017F7F090909063E2A
S11304B04141412201017F010163140804030E112B
S11304C07F110E63140814633F20203F600708085F
S11304D0087F7F407F407F3F203F207F017F484847
S11304E0307F4878007F007F484830414949493E81
S11304F07F083E413E462919097F205454547824EC
S11305005C5454247C545458207C0404040408147B
S113051054543C385454541844287C284454545457
S113052054283C4040207C3C4044207C007C1028E3
S113053044403C04047C7C0810087C007C10107C43
S11305403844444438007C04047C7C141414083873
S11305504444442004047C04040C5050503C382887
S11305607C283844281028443C20203C60000C108F
S1130570107C7C407C407C3C203C207C047C5050A3
S1130580307C5020007C007C50503044545454380B
S11305907C10384438483414147C11241FBECFEF27
S11305A0D0E1DEBFCDBF11E0A0E0B1E0E6EFF0E1C5
S11305B000E00BBF02C007900D92A231B107D9F73A
S11305C026E0A2E1B1E001C01D92A83DB207E1F727
S11305D024D48FC515CDFC010FB6F8946091D406D0
S11305E07091D5068091D6069091D7060FBE3097AC
S11305F021F0608371838283938308958F929F9205
S1130600AF92BF92CF92DF92EF92FF920F934B0182
S11306105C0169017A0180EE91E0A0E0B0E0809392
S1130620200190932101A0932201B093230180E043
S113063090E0D1DFCB0114D501E020E040E061E09F
S113064080E0FFD31092C40680E090E0DC010DC08E
S1130650FC01EE0FFF1FE80FF91FE05EFE4F14824E
S1130660158216820196A11DB11D40912001509161
S11306702101609122017091230184179507A60737
S1130680B70730F381E08093C5068092C606909246
S1130690C706A092C806B092C906C092CA06D092F4
S11306A0CB06E092CC06F092CD061092CF061092C3
S11306B0CE061092D0061092D1061092D206109255
S11306C0D3060F91FF90EF90DF90CF90BF90AF9043
S11306D09F908F900895FB01EE0FFF1F6E0F7F1FF9
S11306E0FB01E05EFE4F44833583268308958F9299
S11306F09F92AF92BF92CF92DF92EF92FF920F93AD
S11307001F93CF93DF937B0149015A0190E06C0161
S1130710CC0CDD1CCC0CDD1CC80ED91E00E010E096
S113072040C02CE3209FC001219F900D1124B701EC
S1130730660F771F6E0D7F1D660F771F680F791F79
S11307406C0F7D1FC530D10539F480E090E020E0C6
S113075030E0A901C0DF1BC0F601EC0FFD1FE65617
S1130760FF4FE491F0E0002E02C0F595E7950A945E
S1130770E2F7E0FF06C080E090E0A5019401ABDF62
S113078006C080E090E020E030E0A901A4DF2196DB
S113079002C0C0E0D0E0C630D1050CF4C2CF0F5F78
S11307A01F4F07301105ACF3DF91CF911F910F91CB
S11307B0FF90EF90DF90CF90BF90AF909F908F907D
S11307C008958F929F92AF92BF92CF92DF92EF9251
S11307D0FF92CF93DF93EC014A015B019093CF0624
S11307E08093CE06C12CD12C76018AE0C816D104A0
S11307F0E104F10428F4A5019401B601888177DFAE
S11308008FEFC81AD80AE80AF80A2196888181115C
S1130810ECCFC092D006D092D106E092D206F092EC
S1130820D306DF91CF91FF90EF90DF90CF90BF90F0
S1130830AF909F908F9008954F925F926F927F92A6
S11308408F929F92AF92BF92CF92DF92EF92FF92DC
S11308500F931F93CF93DF9300D000D000D0CDB778
S1130860DEB769837A838B839C83672B682B692B20
S113087009F4E4C089819A81AB81BC8118161906F8
S11308801A061B060CF45BC020E030E0BFC0780100
S11308909FEFE91AF90A8CE38E9DF0018F9DF00D0C
S11308A011243197DF01AA0FBB1FAE0FBF1FA05E3B
S11308B0BE4F14964D905D906C904F01FF0FAA08A7
S11308C0BB081FC0D501C4010197A109B109940156
S11308D0220F331FF901E80DF91DBF01605E7E4F41
S11308E0AC01440F551F480F591F405E5E4FFA017B
S11308F0248135814681FB012483358346834C0161
S11309005D018CE3809FA001819F500D1124CA01D9
S11309100196092E000CAA0BBB0B88169906AA0691
S1130920BB0680F6FA01EE0FFF1F4E0F5F1FFA01A0
S1130930E05EFE4F448255826682870102C000E079
S113094010E0073011050CF4A2CF89819A81AB81A4
S1130950BC810197A109B10989839A83AB83BC83C4
S113096064C08CE3829FF001839FF00D1124DF01AA
S1130970AA0FBB1FAE0FBF1FA05EBE4F1496CD9033
S1130980DD90EC90AF01FF0F660B770B1FC02A01BF
S11309903B019FEF491A590A690A790ACA01880F6B
S11309A0991FFC01E40FF51FE05EFE4FD201AA0F70
S11309B0BB1FA40DB51DA05EBE4F14968D919D91D5
S11309C0AC9184839583A683B301A201F901319686
S11309D0ACE3AE9FC001AF9F900D112401972C0191
S11309E0092E000C66087708441555056605770539
S11309F070F2DC01AA0FBB1F8A0F9B1FDC01A05EF3
S1130A00BE4F1496CD92DD92EC929F0127303105B2
S1130A100CF4A7CF89819A81AB81BC810196A11D79
S1130A20B11D89839A83AB83BC8389819A81AB810D
S1130A30BC81892B8A2B8B2B09F01CCF26960FB6F1
S1130A40F894DEBF0FBECDBFDF91CF911F910F9100
S1130A50FF90EF90DF90CF90BF90AF909F908F90DA
S1130A607F906F905F904F9008958091C40681119C
S1130A7005C081E08093C40680E05CC208951F92A3
S1130A800F920FB60F9211240BB60F928F929F9272
S1130A90AF92BF92CF92DF92EF92FF920F931F9388
S1130AA02F933F934F935F936F937F938F939F9372
S1130AB0AF93BF93EF93FF938091C406882309F407
S1130AC08FC188B38E7F88BB80911C0190911D01DA
S1130AD0A0911E01B0911F0181309105A105B105BE
S1130AE021F130F082309105A105B105D9F156C04C
S1130AF02091180130911901F901EE0FFF1F2E0FFB
S1130B003F1FF901E05EFE4F258130E000901401A3
S1130B1002C0359527950A94E2F720FF02C02CEF16
S1130B2001C020EC2093130139C0209118013091A9
S1130B301901F901EE0FFF1F2E0F3F1FF901E05EAF
S1130B40FE4F248130E00090140102C035952795B2
S1130B500A94E2F720FF02C02CEF01C020EC20939E
S1130B6013011CC02091180130911901F901EE0FF5
S1130B70FF1F2E0F3F1FF901E05EFE4F268130E07C
S1130B800090140102C0359527950A94E2F720FFDE
S1130B9002C02CEF01C020EC2093130140911401FA
S1130BA0509115016091160170911701473051055C
S1130BB06105710568F44F5F5F4F6F4F7F4F40933E
S1130BC0140150931501609316017093170113C01B
S1130BD0109214011092150110921601109217012F
S1130BE00196A11DB11D80931C0190931D01A0933A
S1130BF01E01B0931F0180911C0190911D01A091D1
S1130C001E01B0911F010397A105B10508F4E5C0C9
S1130C1010921C0110921D0110921E0110921F01CE
S1130C208091C506882319F0813049F1D6C080919E
S1130C30180190911901A0911A01B0911B018F3DE7
S1130C4021E09207A105B10560F40196A11DB11D33
S1130C508093180190931901A0931A01B0931B017A
S1130C60BCC0109218011092190110921A0110922E
S1130C701B011092C40688B3816088BBAEC0C090CB
S1130C80C606D090C706E090C806F090C9068091C9
S1130C90CA069091CB06A091CC06B091CD06BC01BA
S1130CA0CD016150710981099109A701960157D1BC
S1130CB08090180190901901A0901A01B0901B0126
S1130CC0681579058A059B0509F478C0E09112013D
S1130CD02E2F2170E0FD0EC0D501C4010196A11D87
S1130CE0B11D8093180190931901A0931A01B09338
S1130CF01B010DC0D501C4010197A109B10980935D
S1130D00180190931901A0931A01B0931B012111AA
S1130D1029C0AE2FB0E01196A701960142D10091EF
S1130D2018011091190120911A0130911B016017CB
S1130D30710782079307B1F4EF5FE0931201AE2FBE
S1130D40B0E01196A70196012CD1DC01CB010197EB
S1130D50A109B1098093180190931901A0931A0174
S1130D60B0931B01E0911201E0FF37C0AE2FB0E059
S1130D70A70196010CD1DC01CB010197A109B109AE
S1130D80009118011091190120911A0130911B0151
S1130D9080179107A207B30701F5A1E0AE0FA09356
S1130DA01201B0E0A7019601F2D06093180170938C
S1130DB0190180931A0190931B010FC0109218011E
S1130DC01092190110921A0110921B011092120133
S1130DD01092C40688B3816088BB80911301AAD0A5
S1130DE0FF91EF91BF91AF919F918F917F916F91FF
S1130DF05F914F913F912F911F910F91FF90EF9031
S1130E00DF90CF90BF90AF909F908F900F900BBECC
S1130E100F900FBE0F901F901895F8948DD0789472
S1130E208091C4068111FCCF61E070E080E090E025
S1130E3003DD8FE99FE00197F1F700C0000015DEA4
S1130E40EFCF0F931DB81EB81FB8882319F0813057
S1130E50C1F028C087B3826087BB87B3846087BB37
S1130E6087B3816087BB87B3877F87BB88B3816083
S1130E7088BB88B38D7F88BB88B38B7F88BB80E1B8
S1130E8012C087B3886087BB87B38D7F87BB87B366
S1130E908B7F87BB87B38E7F87BB88B3877F88BBF5
S1130EA080E001C080E0442319F0413019F003C010
S1130EB08F7D01C08062613041F028F0623041F0E2
S1130EC0633049F009C0837F07C0877F846004C012
S1130ED08B7F886001C08C60422F50E04730510501
S1130EE0E8F4FA01EA5BFF4F49C08C7F21E017C0A8
S1130EF08C7F20E014C08D7F816021E010C08D7F45
S1130F00816020E00CC08E7F826021E008C08E7F6B
S1130F10826020E004C0836020E001C020E0011171
S1130F20806880649DB1892B8DB98EB1822B8EB976
S1130F300F9108958FB9089528E030E040E050E023
S1130F406CE370E080E090E059DB40EF50EF60EF3D
S1130F5070E0809104019091050133CC0895DB0188
S1130F608F939F9314D0BF91AF91A29F800D911D39
S1130F70A39F900DB29F900D11240895EE0FFF1FB3
S1130F800024001C0BBE0790F691E02D09940FD0AD
S1130F90A59F900DB49F900DA49F800D911D1124C9
S1130FA00895B7FFF4CFF3DF821B930B0895A29F3C
S1130FB0B001B39FC001A39F700D811D1124911D29
S1130FC0B29F700D811D1124911D08958F929F92DF
S1130FD0AF92BF92CF92DF92EF92FF92CF93DF93C3
S1130FE0EC01688179818A819B8161157105810594
S1130FF0910521F464E279ED8BE597E02DE133EF7F
S113100041E050E038D049015A019B01AC01A7EA04
S1131010B1E4BDDF6B017C01ACEEB4EFA50194013A
S1131020C2DFDC01CB018C0D9D1DAE1DBF1DB7FFC2
S113103003C00197A109B04888839983AA83BB831D
S11310409F77DF91CF91FF90EF90DF90CF90BF908B
S1131050AF909F908F900895B9CF80E091E0B6CF84
S1131060A0E0B0E08093000190930101A0930201FD
S1131070B09303010895052E97FB16F400940FD046
S113108057FD05D014D007FC02D046F408C0509593
S11310904095309521953F4F4F4F5F4F0895909560
S11310A08095709561957F4F8F4F9F4F0895A1E272
S11310B01A2EAA1BBB1BFD010DC0AA1FBB1FEE1FCE
S11310C0FF1FA217B307E407F50720F0A21BB30B19
S11310D0E40BF50B661F771F881F991F1A9469F795
S11310E060957095809590959B01AC01BD01CF01F1
S10910F00895F894FFCFFF
S11310F6010000000601CFF0E8E2E5F220ECE8F09A
S10511060000E3
S9030000FC
