S01300007469636B65725F78385F432E73726563DE
S11300004CC0000067C0000065C0000063C0000071
S113001061C000005FC000005DC000005BC0000064
S113002059C0000057C0000055C0000053C0000074
S113003051C000004FC000004DC000004BC0000084
S113004049C0000099C1000045C0000043C0000041
S113005041C000003FC000003DC000003BC00000A4
S113006039C0000037C0000035C0000033C00000B4
S113007031C000002FC000002DC000002BC00000C4
S113008029C0000027C0000025C0000023042D045F
S1130090370441044B0455045F0411241FBECFEF01
S11300A0D0E1DEBFCDBF11E0A0E0B1E0E8EEFAE0C0
S11300B000E00BBF02C007900D92AC30B107D9F736
S11300C026E0ACE0B1E001C01D92A13DB207E1F72A
S11300D0BDD208C595CFFC010FB6F8946091CD064A
S11300E07091CE068091CF069091D0060FBE3097C6
S11300F021F060837183828393830895CF93DF9388
S113010000D0CDB7DEB79A83898389819A81909391
S1130110C8068093C70638C08091C9069091CA0664
S1130120A091CB06B091CC069C01C901880F991F00
S1130130880F991FAC01420F531F2091C7063091BD
S1130140C8068091C9069091CA06A091CB06B091C9
S1130150CC06820F931FFC018081882F90E0BA01A6
S113016025D08091C9069091CA06A091CB06B09182
S1130170CC060196A11DB11D8093C9069093CA06B1
S1130180A093CB06B093CC0689819A8101969A8379
S1130190898389819A81FC018081882309F0BCCFFD
S11301A000000F900F90DF91CF910895CF93DF93CC
S11301B0CDB7DEB728970FB6F894DEBF0FBECDBF1C
S11301C09E838D8378876F8387E090E09A83898309
S11301D011C01C821B8205C08B819C8101969C836B
S11301E08B838B819C810597BCF389819A810197CC
S11301F09A83898389819A8199235CF700002896E0
S11302000FB6F894DEBF0FBECDBFDF91CF91089536
S11302100F93CF93DF93CDB7DEB72C970FB6F89437
S1130220DEBF0FBECDBF6D837E838F839887298702
S11302303A874B875C8780EE91E0A0E0B0E0809342
S1130240190190931A01A0931B01B0931C0180E043
S113025090E041DFDC01CB01DDD301E020E040E0B0
S113026061E080E002D21092BD0619821A821B82DC
S11302701C822CC029813A81C901880F991F820FE1
S1130280931F835E9E4FFC01108229813A81C9012C
S1130290880F991F820F931F825E9E4FFC0110826C
S11302A029813A81C901880F991F820F931F815EAA
S11302B09E4FFC01108289819A81AB81BC81019699
S11302C0A11DB11D89839A83AB83BC83209119013D
S11302D030911A0140911B0150911C0189819A812E
S11302E0AB81BC8182179307A407B50718F281E09C
S11302F08093BE068D819E81AF81B8858093BF06B1
S11303009093C006A093C106B093C20689859A85CE
S1130310AB85BC858093C3069093C406A093C506A1
S1130320B093C6061092C8061092C7061092C9066A
S11303301092CA061092CB061092CC0600002C969E
S11303400FB6F894DEBF0FBECDBFDF91CF910F91F2
S11303500895CF93DF93CDB7DEB79091BD0681E0CA
S11303608927882329F081E08093BD0680E0D9D2D3
S11303700000DF91CF9108951F920F9200905F00CB
S11303800F92112400905B000F922F933F934F9391
S11303905F936F937F938F939F93AF93BF93EF93E9
S11303A0FF93CF93DF93CDB7DEB78091BD0688234B
S11303B009F434C188E390E028E330E0F9012081B6
S11303C02E7FFC01208380910C0190910D01A0915E
S11303D00E01B0910F0181309105A105B105D1F154
S11303E081309105A105B10530F00297A105B10551
S11303F009F45FC08DC08091100190911101A0910A
S11304001201B09113019C01C901880F991F820F39
S1130410931F825E9E4FFC018081282F30E08091E3
S1130420140190911501A0911601B0911701A90131
S113043002C0559547958A95E2F7CA0181709927BC
S1130440892B21F08CEF8093180162C080EC80939B
S113045018015EC08091100190911101A0911201C8
S1130460B09113019C01C901880F991F820F931F3A
S1130470835E9E4FFC018081282F30E0809114011F
S113048090911501A0911601B0911701A90102C024
S1130490559547958A95E2F7CA0181709927892B6A
S11304A021F08CEF8093180133C080EC8093180105
S11304B02FC08091100190911101A0911201B0916F
S11304C013019C01C901880F991F820F931F815E3C
S11304D09E4FFC018081282F30E08091140190917F
S11304E01501A0911601B0911701A90102C05595FB
S11304F047958A95E2F7CA0181709927892B21F0E3
S11305008CEF8093180103C080EC809318010000E5
S11305108091140190911501A0911601B0911701D9
S11305200797A105B105A0F48091140190911501DC
S1130530A0911601B09117010196A11DB11D8093E0
S1130540140190931501A0931601B09317011BC0D9
S113055010921401109215011092160110921701B5
S113056080910C0190910D01A0910E01B0910F01A9
S11305700196A11DB11D80930C0190930D01A093D0
S11305800E01B0930F0180910C0190910D01A09187
S11305900E01B0910F010397A105B105E0F110928E
S11305A00C0110920D0110920E0110920F01809116
S11305B0100190911101A0911201B09113018F3D8E
S11305C09140A105B105A0F4809110019091110111
S11305D0A0911201B09113010196A11DB11D809348
S11305E0100190931101A0931201B093130113C051
S11305F01092100110921101109212011092130125
S11306001092BD0688E390E028E330E0F9012081F0
S11306102160FC0120838091180183D10000DF91C7
S1130620CF91FF91EF91BF91AF919F918F917F9166
S11306306F915F914F913F912F910F9000925B00CA
S11306400F9000925F000F901F901895CF93DF9347
S1130650CDB7DEB7F89475D178949091BD0681E05A
S113066089278823D1F375DEF8CF0F93CF93DF93D7
S1130670CDB7DEB727970FB6F894DEBF0FBECDBF58
S11306808B836C834D832E830F8319821A828DE2B0
S113069090E0FC0110828EE290E0FC0110828FE277
S11306A090E0FC0110828B81882F90E0009721F06C
S11306B0019709F444C074C087E390E027E330E075
S11306C0F90120812260FC01208387E390E027E385
S11306D030E0F90120812460FC01208387E390E06D
S11306E027E330E0F90120812160FC01208387E3C6
S11306F090E027E330E0F9012081277FFC0120838B
S113070088E390E028E330E0F90120812160FC01D6
S1130710208388E390E028E330E0F90120812D7FF5
S1130720FC01208388E390E028E330E0F901208194
S11307302B7FFC01208389818061898331C087E319
S113074090E027E330E0F90120812860FC01208358
S113075087E390E027E330E0F90120812D7FFC015D
S1130760208387E390E027E330E0F90120812B7FA9
S1130770FC01208387E390E027E330E0F901208146
S11307802E7FFC01208388E390E028E330E0F90128
S11307902081277FFC01208389818F7E898300004B
S11307A08D81882F90E0009719F0019729F008C0F7
S11307B089818F7D898304C0898180628983000057
S11307C08C81882F90E08130910599F082309105D9
S11307D01CF4892B39F022C08230910589F00397EB
S11307E0B1F01CC089818B7F89838981877F89834C
S11307F015C08981846089838981877F89830EC03C
S113080089818B7F898389818860898307C08981F5
S11308108460898389818860898300008E81882F20
S113082090E0092E000CAA0BBB0B40E050E026E040
S113083030E0841B950B2817390708F44AC08A5BFB
S11308409F4FFC0194C089818E7F898389818D7F2C
S113085089838A8181608A833CC089818E7F898370
S113086089818D7F89838A818E7F8A8332C0898141
S11308708160898389818D7F89838A8181608A836C
S113088028C089818160898389818D7F89838A8158
S11308908E7F8A831EC089818E7F8983898182604D
S11308A089838A8181608A8314C089818E7F898348
S11308B08981826089838A818E7F8A830AC0898143
S11308C0816089838981826089838A818E7F8A831A
S11308D000008F81882319F0898180688983898148
S11308E0806489838DE290E02DE230E0F90130816B
S11308F02981232BFC0120838EE290E02EE230E05C
S1130900F90130812A81232BFC01208300002796E2
S11309100FB6F894DEBF0FBECDBFDF91CF910F911C
S11309200895CF93DF931F92CDB7DEB789838FE20B
S113093090E02981FC01208300000F90DF91CF918A
S11309400895CF93DF93CDB7DEB728E030E040E0E1
S113095050E06CE370E080E090E05ADC80910401A8
S113096090910501CBDB0000DF91CF910895EE0F4C
S1130970FF1F0024001C0BBE0790F691E02D099484
S11309808F929F92AF92BF92CF92DF92EF92FF929B
S1130990CF93DF93EC01688179818A819B81611512
S11309A071058105910521F464E279ED8BE597E009
S11309B02DE133EF41E050E038D049015A019B0169
S11309C0AC01A7EAB1E44DD06B017C01ACEEB4EF0D
S11309D0A501940152D0DC01CB018C0D9D1DAE1DEF
S11309E0BF1DB7FF03C00197A109B048888399834D
S11309F0AA83BB839F77DF91CF91FF90EF90DF9025
S1130A00CF90BF90AF909F908F900895B9CF80E022
S1130A1091E0B6CFA0E0B0E0809300019093010193
S1130A20A0930201B09303010895052E97FB16F4D9
S1130A3000940FD057FD05D024D007FC02D046F413
S1130A4008C050954095309521953F4F4F4F5F4FCB
S1130A50089590958095709561957F4F8F4F9F4F26
S1130A60089531D0A59F900DB49F900DA49F800D43
S1130A70911D11240895B7FFF4CFF3DF821B930B6C
S1130A800895A1E21A2EAA1BBB1BFD010DC0AA1FCB
S1130A90BB1FEE1FFF1FA217B307E407F50720F0E3
S1130AA0A21BB30BE40BF50B661F771F881F991F5E
S1130AB01A9469F760957095809590959B01AC01A7
S1130AC0BD01CF010895A29FB001B39FC001A39FB0
S1130AD0700D811D1124911DB29F700D811D112473
S10B0AE0911D0895F894FFCF65
S10F0AE8010000000601D1F2E0F0F20071
S9030000FC
